:100000000C94DB010C940C020C940C020C940C026A
:100010000C940C020C940C020C940C020C940C0228
:100020000C940C020C940C020C940C020C940C0218
:100030000C940C020C940C020C940C020C940C0208
:100040000C940C020C940C020C940C020C940C02F8
:100050000C940C020C940C020C940C020C94442B87
:100060000C940C020C94B82B0C948E2B0C940C0258
:100070000C940C020C940C020C940C020C940C02C8
:100080000C940C020C940C020C940C020C940C02B8
:100090000C940C020C940C020C940C020C94202A6C
:1000A0000C940C020C940C020C940C020C940C0298
:1000B0000C940C020C940C020C940C020C940C0288
:1000C0000C940C020C940C020C940C020C940C0278
:1000D0000C940C020C940C020C940C020C940C0268
:1000E0000C940C020C9438230C946F1B0C941F037B
:1000F0000C941F210C9416030C942C150C942308BB
:100100000C94ED020C941A030C945E020C940C03F4
:100110000C94FA020C94F1140C9412030C944B02FC
:100120000C94F4020C946D060C943B020C94F01F9A
:100130000C9410150C948C140C9424030C94D30977
:100140000C943E1D0C94CA1B0C94211C0C9413128D
:100150000C9447200C94301C0C9461220C942B308E
:100160000C942B150C94FE020C940A0A0C943C027D
:100170000C9493310C9409120C9408030C94120201
:100180000C94E5020C94911B0C9450070C942130B4
:100190000C948A310C94A9060C94BA140C949E31D8
:1001A0000C94A0310C9491220C94CB060C943E211B
:1001B0000C940D230C94DF020C94281B0C94E90280
:1001C0000C94611E0C94F5140C94C11E0C940E0238
:1001D0000C9414150C944C1E0C9404030C944322A0
:1001E0000C9420150C9420030C9409150C9403070F
:1001F0000C94DC1E0C942F270C949A310C947523CC
:100200000C9437170C947D120C941E150C949A06BE
:100210000C949C310C948C310C94431B0C9423153E
:100220000C94BD2D0C94A4260C9453080C944308F4
:100230000C9482210C9492020C9468210C94F1028B
:100240000C94E9090C94F9140C9465020C94FF09C0
:100250000C943A020C94E8120C94BD060C949D1474
:100260000C9431267C3C3E5E2B3D3F2F5B5D3B2C4E
:100270002A225C001F1C1F1E1F1E1F1F1E1F1E3058
:10028000303A32363A3233004A756C2031372032F8
:1002900030323100000020002300260029002C000D
:1002A0002F003200000100000301060109010000D7
:1002B0000A0B02090C0D0E080703040100000000E0
:1002C000000000000000000000000000000000002E
:1002D00000000000000000000000121110000000EB
:1002E000000000000000000000000000000000000E
:1002F0000000000000002100240027002A002D003B
:100300003000330001010000040107010A0101026D
:100310001020200808102040102040800201020117
:1003200008040201010204081020408080402010CF
:100330000804020180040201804020100804020128
:100340000804020101020408102040800102040890
:100350001020408000002200250028002B002E00E5
:100360003100340002010000050108010B01050500
:100370000505070508080808020202020A0A08081B
:100380000404040401010101010101010303030349
:1003900003030303040707070C0C0C0C0C0C0C0CD8
:1003A0000202020206060606060606060B0B0B0BE9
:1003B0000B0B0B0BBD2D11241FBECFEFD1E2DEBF07
:1003C000CDBF00E00CBF16E0A0E0B2E0E6E0FDE744
:1003D00000E00BBF02C007900D92A033B107D9F720
:1003E0002BE0A0E3B6E001C01D92A535B207E1F70E
:1003F00011E0CBEDD1E000E006C021970109802F8C
:10040000FE010E94AE3BCA3DD10780E00807A9F774
:100410000E94892E0C94813E0C940000FC01818D79
:10042000928D089508952091D706260F3327331F04
:1004300021323105ECF42091C807FC0190E080E006
:10044000243069F082E00895A091D7062191AC0193
:100450004B54594FA40FB52FB11D2C9301968617FD
:1004600098F38091D706680F6093D70680E00895CF
:1004700081E0089508950895E091810780918007B3
:10048000E81730F4F0E0EE57F84F808190E00895DF
:100490008FEF9FEF089590918107809180072FEF54
:1004A0003FEF981748F4E92FF0E0EE57F84F20811E
:1004B00030E09F5F90938107C90108958091800784
:1004C00090918107891B990B0895CF92DF92EF924B
:1004D000FF920F931F93CF93DF937C01CB018A018F
:1004E0002091CE07222389F0EB016B01C40ED51EAB
:1004F000CC15DD0569F06991D701ED91FC91019072
:10050000F081E02DC7011995F3CF642F0E941302EB
:10051000C801DF91CF911F910F91FF90EF90DF9075
:10052000CF900895CF93DF931F92CDB7DEB7698345
:100530002091CE072223F9F02091F107203258F0C4
:1005400021E030E0FC013383228390E080E00F90D3
:10055000DF91CF9108958091CF07E82FF0E0E0532D
:10056000F84F998190838F5F8093CF078093F10735
:1005700081E090E0ECCF61E0CE0101960E94130291
:10058000F7CF8150823108F05AC0E82FF0E0882779
:10059000E353FD4F8F4F0C94AE3BED02F102DF02AF
:1005A000E502E9021F03F402FA02FE020403080353
:1005B0000C03120316031F031A0320032403809164
:1005C00080008F77809380000895809180008F7DD8
:1005D000F9CF80918000877FF5CF84B58F7784BD78
:1005E000089584B58F7DFBCF8091B0008F77809385
:1005F000B00008958091B0008F7DF9CF8091900078
:100600008F77809390000895809190008F7DF9CF2F
:1006100080919000877FF5CF8091A0008F778093A5
:10062000A00008958091A0008F7DF9CF8091A00057
:10063000877FF5CF809120018F77809320010895E7
:10064000809120018F7DF9CF80912001877FF5CFA8
:10065000CF93DF93282F30E0F901E255FD4F8491CD
:10066000F901E25FFC4FD491F901E259FC4FC491CA
:10067000CC23A1F081110E94C102EC2FF0E0EE0F1B
:10068000FF1FEC56FD4FA591B491EC91ED2381E055
:1006900090E009F480E0DF91CF91089580E090E050
:1006A000FACF1F93CF93DF93282F30E0F901E25563
:1006B000FD4F8491F901E25FFC4FD491F901E259B9
:1006C000FC4FC491CC23A9F0162F81110E94C102C6
:1006D000EC2FF0E0EE0FFF1FEC5AFC4FA591B49108
:1006E0008FB7F894EC91111108C0D095DE23DC93FC
:1006F0008FBFDF91CF911F910895DE2BF8CF10921D
:10070000C80781E08093C7071092A20761E084E1E7
:100710000E94510361E085E10E945103E9EBF0E0A2
:1007200080818E7F808380818D7F808388E4809329
:10073000B80085E48093BC000895CF93DF9391E0E7
:100740009093B4068823B9F0C091B800D091BA0054
:100750008091BC008A7B8093BC0060E084E10E94B1
:10076000510360E085E10E9451030E947F03D09312
:10077000BA00C093B800DF91CF910895CF93DF9373
:1007800090E0FC01E25FFC4F249182599C4FFC01F8
:1007900084918823C9F090E0880F991FFC01EC50E8
:1007A000FD4FA591B491FC01EC5AFC4FC591D49139
:1007B00061110DC09FB7F8948C91209582238C9382
:1007C0008881282328839FBFDF91CF9108956230CD
:1007D00051F49FB7F8943C91822F809583238C939A
:1007E000E8812E2BEFCF8FB7F894EC912E2B2C9322
:1007F0008FBFEACFCF93CFB7F8948091B306811122
:1008000027C0E3EAF3E08491E3E4F3E09491E82F76
:10081000F0E0EE0FFF1FEC50FD4FA591B491EC916D
:10082000E92321F461E085E30E94510361E085E35F
:100830000E94BE038CB580618CBD8CB580648CBD7C
:1008400061E084E30E94BE0361E083E30E94BE0393
:100850008091B3068F5F8093B306CFBFCF91089589
:10086000863308F0865320917B00982F9870277F5D
:10087000922B90937B008770806480937C008091A2
:100880007A00806480937A0080917A0086FDFCCFA4
:10089000809178009091790008953FB7F894809105
:1008A000AF069091B006A091B106B091B20626B500
:1008B000A89B05C02F3F19F00196A11DB11D3FBF98
:1008C000BA2FA92F982F8827BC01CD01620F711D67
:1008D000811D911D42E0660F771F881F991F4A9561
:1008E000D1F70895CF92DF92EF92FF920F931F936B
:1008F000CF93DF93D091F10781E0D13208F09CC013
:10090000C091F0070E944D046B017C018091C807E3
:1009100081116CC082E08093C80781E08093C70793
:100920008FEF8093C6071092C507D093C407A0ED40
:10093000B7E0E4EAF7E080E0D8138DC01092A30797
:100940008091A307CC0FC82BC093A3078091A20767
:10095000813009F084C01092A2070E944D046B01FF
:100960007C018091A3078093BB008091CA0790917E
:10097000CB07A091CC07B091CD07892B8A2B8B2B6D
:10098000A1F00E944D040091CA071091CB0720915D
:10099000CC073091CD076C197D098E099F09061788
:1009A00017072807390708F442C08091BC0083FD6F
:1009B000D8CF85EC8093BC000E944D046B017C0174
:1009C0008091C807823009F44CC08091C6078F3FE0
:1009D00009F469C08091C607803209F466C080912D
:1009E000C607803309F463C084E026C08091CA073B
:1009F0009091CB07A091CC07B091CD07892B8A2B82
:100A00008B2B09F483CF0E944D040091CA071091EB
:100A1000CB072091CC073091CD076C197D098E0949
:100A20009F09061717072807390708F06FCF80912D
:100A3000C9070E949D0385E01092CF071092F1072D
:100A40001092CE07DF91CF911F910F91FF90EF9001
:100A5000DF90CF9008959D9191938F5F6DCF85EE3C
:100A6000A9CF8091CA079091CB07A091CC07B091F4
:100A7000CD07892B8A2B8B2B09F4A2CF0E944D0422
:100A80000091CA071091CB072091CC073091CD0778
:100A90006C197D098E099F09061717072807390762
:100AA00008F08ECFC4CF80E0C7CF82E0C5CF83E00F
:100AB000C3CFCF92DF92EF92FF920F931F93CF930A
:100AC000DF93D82FC62F613208F098C00E944D04E2
:100AD0006B017C018091C80781116BC081E080931C
:100AE000C8078093C7079FEF9093C6071092C5076A
:100AF0009C0F9093C4078093A3078091A307DD0FF9
:100B0000D82BD093A3078091A207813009F078C039
:100B10001092A2070E944D046B017C018091A307F3
:100B20008093BB008091CA079091CB07A091CC071E
:100B3000B091CD07892B8A2B8B2BA1F00E944D04FD
:100B40000091CA071091CB072091CC073091CD07B7
:100B50006C197D098E099F090617170728073907A1
:100B600008F448C08091BC0083FDD8CF85EC809309
:100B7000BC000E944D046B017C018091C80781304C
:100B800009F440C08091C5078C1710F4C091C507C7
:100B9000E4EAF7E0A2E8B7E080E08C1355C08C2FC0
:100BA000DF91CF911F910F91FF90EF90DF90CF9049
:100BB00008958091CA079091CB07A091CC07B0917E
:100BC000CD07892B8A2B8B2B09F484CF0E944D04EF
:100BD0000091CA071091CB072091CC073091CD0727
:100BE0006C197D098E099F09061717072807390711
:100BF00008F070CF8091C9070E949D03C0E0CFCF5D
:100C000085EEB5CF8091CA079091CB07A091CC0714
:100C1000B091CD07892B8A2B8B2B09F4AECF0E9484
:100C20004D040091CA071091CB072091CC07309159
:100C3000CD076C197D098E099F090617170728072C
:100C4000390708F09ACFD6CF91919D938F5FA5CFAA
:100C50008F929F92AF92BF92CF92DF92EF92FF92CC
:100C60004B015C010E944D046B017C010E944D040C
:100C70006C197D098E099F09683E734081059105B5
:100C8000A8F321E0821A9108A108B10888EEC80EE5
:100C900083E0D81EE11CF11C81149104A104B1046D
:100CA00029F7FF90EF90DF90CF90BF90AF909F908B
:100CB0008F9008952FB7F8946091AB067091AC06B1
:100CC0008091AD069091AE062FBF0895DC01ED91A5
:100CD000FC910190F081E02D1994AF92BF92CF92D8
:100CE000DF92EF92FF920F931F93CF93DF936C01EC
:100CF0007B018B01040F151FEB015E01AE18BF08CD
:100D0000C017D10759F06991D601ED91FC9101907E
:100D1000F081E02DC6011995892B79F7C501DF9186
:100D2000CF911F910F91FF90EF90DF90CF90BF90E8
:100D3000AF900895FC01538D448D252F30E0842F12
:100D400090E0821B930B541710F0CF9608950197F3
:100D50000895FC01918D828D981761F0A28DAE0FE0
:100D6000BF2FB11D5D968C91928D9F5F9F73928F67
:100D700090E008958FEF9FEF0895FC01918D828D93
:100D8000981731F0828DE80FF11D858D90E0089560
:100D90008FEF9FEF0895FC01918D228D892F90E0B8
:100DA000805C9F4F821B91098F739927089586E07D
:100DB0009AE00E94CB0621E0892B09F420E0822FE3
:100DC0000895FC01A48DA80FB92FB11DA35ABF4FE0
:100DD0002C91848D90E001968F739927848FA6893A
:100DE000B7892C93A089B1898C91837080648C938E
:100DF000938D848D981306C00288F389E02D80813D
:100E00008F7D80830895EF92FF920F931F93CF936E
:100E1000DF93EC0181E0888F9B8D8C8D98131AC035
:100E2000E889F989808185FF15C09FB7F894EE891C
:100E3000FF896083E889F989808183708064808379
:100E40009FBF81E090E0DF91CF911F910F91FF90C4
:100E5000EF900895F62E0B8D10E00F5F1F4F0F736C
:100E60001127E02E8C8D8E110CC00FB607FCFACF27
:100E7000E889F989808185FFF5CFCE010E94E106DE
:100E8000F1CFEB8DEC0FFD2FF11DE35AFF4FF082F8
:100E90009FB7F8940B8FEA89FB8980818062CFCF5E
:100EA000CF93DF93EC01888D8823B9F0AA89BB89A1
:100EB000E889F9898C9185FD03C0808186FD0DC08C
:100EC0000FB607FCF7CF8C9185FFF2CF808185FFAD
:100ED000EDCFCE010E94E106E9CFDF91CF910895D9
:100EE00080E090E0892B29F00E94D70681110E94B2
:100EF000000080E090E0892B49F080E090E0892BB1
:100F000029F00E94000081110E94000080E090E022
:100F1000892B49F080E090E0892B29F00E940000A5
:100F200081110E94000080E090E0892B49F080E070
:100F300090E0892B29F00E94000081110C940000A0
:100F40000895FC0161819081492F50E08281282F12
:100F500030E0E4E7F2E081E0861730F47491270F87
:100F6000311D8F5F3196F8CF633020F0937011F40C
:100F70002F5F3F4F6DE671E0469FC001479F900D88
:100F8000569F900D112405964D5F5F4F56954795DE
:100F900056954795840F951F820F931F67E070E069
:100FA0000E949A3B0895FC01DB0112968D919C9161
:100FB0001397938382838EE293E0918380831496C8
:100FC0008C911497848315968C911597858316962A
:100FD0004D915D916D917C91199746835783608700
:100FE00071871A964D915D916D917C911D97428705
:100FF0005387648775871E964D915D916D917C91A5
:10100000519746875787608B718B52968C91529778
:10101000828B53964D915D916D917C915697438B48
:10102000548B658B768B57964D915D916D917C912C
:101030005A97478B508F618F728F5B968D919C91E1
:10104000948F838F0895DC015996ED91FC91309730
:10105000B9F083899489A589B689428553856485C9
:101060007585841B950BA60BB70B811520E892079D
:10107000A105B10538F08FEF9FE7A0E0B0E008953B
:1010800090E080E00895DC0159968D919C91009745
:1010900039F0DC01ED91FC910480F581E02D19948B
:1010A00090E080E00895CF93DF931F92CDB7DEB735
:1010B0006983DC01ED91FC910280F381E02D41E038
:1010C00050E0BE016F5F7F4F19950F90DF91CF9178
:1010D0000895FC0120812EBD9B012150310941F072
:1010E00051810DB407FEFDCF4EB55EBD4193F5CFE6
:1010F00061507109860F971F0DB407FEFDCF2EB505
:10110000FC0120830895E091F509F091F6098081B2
:101110009091F409892B80830895E091F509F0916D
:10112000F60990818091F409809589238083089540
:101130008EBD00000DB407FEFDCF8EB508958FEF74
:101140000C9498080F931F93CF93DF93EC010E94A8
:101150005A068B010E949F088F3F69F00E945A0631
:10116000601B710B6C177D07A8F380E0DF91CF91B6
:101170001F910F91089581E0F9CFAF92BF92CF9266
:10118000DF92EF92FF920F931F93CF93DF9300D0E4
:1011900000D01F921F92CDB7DEB78C017B016A0190
:1011A0008091F7098333E1F45801A40EB51EA0160F
:1011B000B10609F46FC00E948D0880EF0E94980864
:1011C000812F0E949808802F0E9498080F5F1F4F60
:1011D000F70181917F010E9498080E948308E7CF60
:1011E0005B01A40EB51E8433C1F40E948D081983DF
:1011F0000A838D2D80688B83CC8264E070E0CE0101
:1012000001960E946908AE14BF0409F441C0F701B9
:1012100081917F010E949808F6CF0E948D080F3FB0
:10122000110509F028F419820A8384E08B830CC02D
:1012300017FD17C019820A8333E0169507953A9572
:10124000E1F7007E0C600B8386E0C816D104A0F5A0
:10125000F701DE011496EA15FB0599F081918D9353
:10126000FACFC80126E0969587952A95E1F7807E0A
:1012700019830A830115104C10F48461D7CF8C6157
:10128000D5CFB6016D5F7F4FCE0101960E946908F0
:101290000E948308C60128960FB6F894DEBF0FBEE1
:1012A000CDBFDF91CF911F910F91FF90EF90DF9015
:1012B000CF90BF90AF90089563E070E0CE010196AB
:1012C0000E946908F70181917F010E949808AE147D
:1012D000BF04C1F7DDCF90E02091F709233339F443
:1012E0000C96982F990F990F990F80E008954896C2
:1012F000F8CFDA01E091F809F0E0FE2FEE27E60FD3
:10130000F71F90E0982F8827A901BD018E0F9F1F1E
:101310000C94BD08CF93DF931F921F92CDB7DEB719
:1013200079836A8322E030E0AE014F5F5F4F60E176
:1013300070E00E9479090F900F90DF91CF9108958E
:10134000CF93DF931F921F92CDB7DEB779836A8365
:1013500022E030E0AE014F5F5F4F64E070E00E943A
:1013600079090F900F90DF91CF910895CF93DF937C
:101370001F92CDB7DEB72091F80930E0322F222737
:10138000260F371F90E0982F8827498341E050E0CF
:10139000BE016F5F7F4F820F931F0E94BD080F90A9
:1013A000DF91CF910895CF93DF931F92CDB7DEB732
:1013B0006983DC01ED91FC910280F381E02D41E035
:1013C00050E0BE016F5F7F4F19950F90DF91CF9175
:1013D0000895CF93DF931F92CDB7DEB76983DC0109
:1013E000ED91FC910280F381E02D41E050E0BE01DF
:1013F0006F5F7F4F19950F90DF91CF910895FC019A
:101400009485FB018485981303C081E0983008F02F
:1014100080E00895CF93DF931F92CDB7DEB7698345
:10142000DC01ED91FC910280F381E02D41E050E080
:10143000BE016F5F7F4F19950F90DF91CF91089597
:10144000089561E0FC0184810E945103809130067F
:1014500081111092300608958CBD9DBD0895CF93E3
:10146000DF93EC0180913006811109C081E0809307
:1014700030068091A30A9091A40A0E942C0A60E091
:101480008C81DF91CF910C9451038F929F92AF92F8
:10149000BF92FF920F931F93CF93DF93EC01F62E31
:1014A00049015A018E81882389F08F8198859C019A
:1014B0002F5F3F4F38872F838230924018F40E946D
:1014C0009F08F3CFCE010E94210A1E82CE010E9406
:1014D0002F0A8CE291E00E94A2088F2D80640E9466
:1014E000980808E110E0D501C401002E04C0B695AB
:1014F000A795979587950A94D2F70E949808085067
:101500001109083F8FEF180771F785E9FF2021F0D7
:1015100028E087E8F2128FEF0E94980810E00E94FE
:101520009F088A8787FF04C01F3F11F01F5FF7CF16
:10153000DF91CF911F910F91FF90BF90AF909F903F
:101540008F900895AF92BF92CF92DF92EF92FF9269
:101550000F931F93CF93DF93EC016901C801820FB2
:10156000931F8130924050F58E81882379F08881D5
:101570009981AA81BB8184179507A607B70731F423
:101580008F819885C816D90608F042C048835983D0
:101590006A837B838B85833039F089E0440F551F44
:1015A000661F771F8A95D1F79A01AB0161E1CE01E1
:1015B0000E94450A882389F083E08D83CE010E9432
:1015C000210A80E0DF91CF911F910F91FF90EF9062
:1015D000DF90CF90BF90AF9008950E945A065B01B4
:1015E0000E949F088A878F3F69F40E945A066A19F1
:1015F0007B096D327140A0F38FE08D83CE010E9494
:10160000210ADCCF8E3F89F418861F8281E08E8309
:101610008F8198858C159D0550F40E949F088F81BD
:101620009885019698878F83F3CF8DE0E6CF670189
:10163000E00EF11E0E949F08F60181936F01EE15E6
:10164000FF05C1F78F819885080F191F18870F8331
:101650008985882319F001151240A0F08E81882316
:1016600089F08F8198859C012F5F3F4F38872F83AA
:101670008230924018F40E949F08F3CFCE010E945E
:10168000210A1E8281E09ECFCF92DF92EF92FF92DD
:101690000F93CF93DF93EC01690182E1411551056E
:1016A0006105710599F08B85833039F089E0440F2D
:1016B000551F661F771F8A95D1F79A01AB0168E124
:1016C000CE010E94450A882319F084E08D832DC045
:1016D0008EEF0E94980876018EEFD81AF70181915B
:1016E0007F010E949808EC14FD04C1F78FEF0E945F
:1016F00098088FEF0E9498080E949F088A878F7130
:10170000853071F4011116C0CE010E94210A81E0DA
:10171000DF91CF910F91FF90EF90DF90CF900895E0
:1017200081E18D83CE010E94210ACE010E94210A0F
:1017300080E0EECF88E592E00E94A208811102C00D
:1017400085E1C4CF20E030E0A9016DE0CE010E9428
:10175000450A882311F084E1B9CF0E949F088111C6
:10176000FACFD2CF0F934091320650913306609159
:10177000340670913506411551056105710599F0E2
:10178000082F22EF37E08091F2099091F3090E942F
:10179000440B882349F010923206109233061092BF
:1017A00034061092350681E00F9108950F93CF9380
:1017B000C82F80913106811105C0C1E08C2FCF91D7
:1017C0000F91089540915402509155026091560234
:1017D000709157020C2F22EF37E08091F20990911F
:1017E000F3090E94440B811102C0C0E0E7CFCC2373
:1017F00021F381E00E94B20B8823B9F310923106E5
:10180000DDCF8F929F92AF92BF92EF92FF920F9394
:101810001F93CF934B015C01C42F80915402909190
:101820005502A0915602B091570288159905AA0554
:10183000BB0551F181E00E94D60B81110BC080E005
:10184000CF911F910F91FF90EF90BF90AF909F901D
:101850008F90089582EFE82E87E0F82E00E012E0E6
:1018600030E020E0B501A4018091F2099091F309E4
:101870000E94A20A882319F3809254029092550282
:10188000A0925602B0925702409131064C2B4093E1
:10189000310681E0D5CF8F929F92AF92BF92CF92C7
:1018A000DF92EF92FF92CF9325EA3AE03093F3096B
:1018B0002093F209882309F46DC040E060E070E0F5
:1018C000CB010E94010C81110BC080E0CF91FF90F1
:1018D000EF90DF90CF90BF90AF909F908F90089542
:1018E0008091B0098F7789F78091BC099091BD09EB
:1018F000A091BE09B091BF0984369105A105B1053B
:1019000020F3C090B809D090B909E090BA09F090DE
:10191000BB09C114D104E104F104B9F240E0C701EC
:10192000B6010E94010C882381F28091FD079091FD
:10193000FE078115924049F6A0910208AA2329F2D8
:1019400060910008709101086115710509F4BDCF1F
:101950002091FF07222309F4B8CFA093C30A209354
:10196000B50A90E080E030E0E1E0F0E0C82FAF01A0
:10197000082E02C0440F551F0A94E2F724173507BA
:1019800069F041E0480F01968930910579F740935D
:10199000BE0A9BCFC12CD12C7601C0CF8093BE0A4A
:1019A000209108083091090850E040E021153105E8
:1019B00041F4209116083091170840911808509171
:1019C00019082093B60A3093B70A4093B80A509387
:1019D000B90A46015701860E971EA11CB11C8092C0
:1019E000C40A9092C50AA092C60AB092C70AE091B2
:1019F0000308F0910408F093CA0AE093C90AB0E022
:101A00000E94523BDC01CB01880D991DAA1DBB1D14
:101A10008093CB0A9093CC0AA093CD0AB093CE0AC0
:101A200025E0EE0FFF1F2A95E1F7E150FE4FEF2F63
:101A3000FF27E6958E0F9F1FA11DB11D8093BF0A42
:101A40009093C00AA093C10AB093C20A809005087F
:101A500090900608B12CA12C8114910441F480903F
:101A6000120890901308A0901408B0901508C81A96
:101A7000D90AEA0AFB0AC80CD91CEA1CFB1C04C0E0
:101A8000F694E794D794C794CA95D2F7C092BA0A4D
:101A9000D092BB0AE092BC0AF092BD0A85EFC8164C
:101AA0008FE0D806E104F10428F48CE08093C80AA2
:101AB00081E00CCF80E125EFC2162FEFD206E104C2
:101AC000F104A0F380911E0890911F08A0912008B6
:101AD000B09121088093CB0A9093CC0AA093CD0AB1
:101AE000B093CE0A80E2E2CF4F925F926F927F92E4
:101AF0008F929F92AF92BF92CF92DF92EF92FF921E
:101B00000F931F93CF93DF93EC0142305105610592
:101B1000710590F480E0DF91CF911F910F91FF90BC
:101B2000EF90DF90CF90BF90AF909F908F907F907D
:101B30006F905F904F90089589859A85AB85BC859D
:101B40000196A11DB11D84179507A607B70710F3CD
:101B5000CB88DC88ED88FE888F89803109F042C00F
:101B6000BB27A72F962F852F480159012A013B013A
:101B7000C80ED91EEA1EFB1E809154029091550298
:101B8000A0915602B0915702C816D906EA06FB0684
:101B900099F58F898031C1F5B301A20155276627D8
:101BA0007727440F551F4E50584FFA01918280827B
:101BB000809131068160809331068A89823080F07D
:101BC0008D819E81AF81B8858C0D9D1DAE1DBF1D81
:101BD0008093320690933306A0933406B093350673
:101BE00081E099CFDB01CA01E7E0B695A79597950B
:101BF0008795EA95D1F7B8CF40E0C701B6010E94BA
:101C0000010C8111C6CF86CFB301A2014F775527B2
:101C100066277727440F551F440F551F4E50584FC6
:101C2000FA0180829182A282B382C2CF8F929F9268
:101C3000AF92BF92CF92DF92EF92FF920F931F93DA
:101C4000CF93DF93FC0181859285A385B4850196AE
:101C5000A11DB11D84179507A607B70770F480E092
:101C6000DF91CF911F910F91FF90EF90DF90CF9078
:101C7000BF90AF909F908F90089583889488A58897
:101C8000B6888789803189F5BB27A72F962F852FA6
:101C9000E9016A017B018F01BC01CD01680D791D4D
:101CA0008A1D9B1D8090540290905502A090560270
:101CB000B090570286169706A806B90601F5F801F6
:101CC0008789803111F5DD24EE24FF24F601EE0F23
:101CD000FF1FEE50F84F80819181B0E0A0E0888333
:101CE0009983AA83BB8381E0BBCFDB01CA01C7E034
:101CF000B695A79597958795CA95D1F7C9CF40E036
:101D00000E94010C8111DBCFAACFE894C7F8DD2433
:101D1000EE24FF24F601EE0FFF1FEE0FFF1FEE5023
:101D2000F84F80819181A281B381BF70D8CF4F924B
:101D30005F926F927F92AF92BF92CF92DF92EF92BB
:101D4000FF920F931F93CF93DF9300D01F92CDB7D5
:101D5000DEB78C0149835A836B837C835901C12C84
:101D6000D12C7601412C82E0582E612C712C4981B6
:101D70005A816B817C819E012F5F3F4FC8010E9479
:101D8000160E882339F1F8018585A301920104C05C
:101D9000220F331F441F551F8A95D2F7DA01C9015C
:101DA000C80ED91EEA1EFB1E49815A816B817C81B7
:101DB0008789803111F188EF9FEFAFEFBFE04817BF
:101DC00059076A077B0798F2F501C082D182E28247
:101DD000F38281E00F900F900F900F90DF91CF91E1
:101DE0001F910F91FF90EF90DF90CF90BF90AF9039
:101DF0007F906F905F904F90089588EF9FEFA0E0E5
:101E0000B0E0DDCFCF93DF93FC012581222321F0C9
:101E100080E0DF91CF910895EC018091C80A803174
:101E200059F582E08583178A108E118E128E80916B
:101E3000C90A9091CA0AB0E0A0E025E0880F991F76
:101E4000AA1FBB1F2A95D1F7838B948BA58BB68BCA
:101E500081EB9AE09C8F8B8F81E08C831E821F82A6
:101E6000188619861A861B861C861D861E861F8666
:101E7000188A198A1A8ACDCF803251F683E0858379
:101E80004091CB0A5091CC0A6091CD0A7091CE0A54
:101E9000478B508F618F728F9F012D5E3F4F81EB7B
:101EA0009AE00E94970E8111D3CFB2CF8F929F926A
:101EB000AF92BF92CF92DF92EF92FF920F931F9358
:101EC000CF93DF93EC018D8181110EC080E0DF9113
:101ED000CF911F910F91FF90EF90DF90CF90BF9027
:101EE000AF909F908F9008950B891C892D893E8912
:101EF000041715072607370748F34A015B018230AC
:101F000031F48A869B86AC86BD8681E0E0CF811461
:101F10009104A104B10449F41E821F821886198617
:101F20001A861B861C861D86F0CF0A851B852C858C
:101F30003D85EB8DFC8D858590E00996B901A80162
:101F40004150510961097109082E04C076956795C1
:101F5000579547950A94D2F775016401E1E0CE1ACE
:101F6000D108E108F10804C0F694E794D794C79427
:101F70008A95D2F7C416D506E606F70620F0012B9F
:101F8000022B032B11F58F89988DA98DBA8D8E8325
:101F90009F83A887B9878E010A5F1F4FC114D104A0
:101FA000E104F10409F4ADCF4E815F816885798544
:101FB00098018B8D9C8D0E94160E91E0C91AD10854
:101FC000E108F1088111EACF81CFC41AD50AE60AE7
:101FD000F70AE1CF3F924F925F926F927F928F927A
:101FE0009F92AF92BF92CF92DF92EF92FF920F93A8
:101FF0001F93CF93DF93CDB7DEB72C970FB6F8942E
:10200000DEBF0FBECDBF5C01DC015B968D909C9066
:102010005C9716964D905D906D907C901997411449
:1020200051046104710409F468C0BFEF4B1A5B0AE4
:102030006B0A7B0A312CF40181859285A385B485D6
:102040009C01AD012F5F3F4F4F4F5F4F29873A876C
:102050004B875C87730162011D821E821F82188676
:10206000F40181859285A385B4852D813E814F81C0
:102070005885281739074A075B0708F056C0898535
:102080009A85AB85BC858C159D05AE05BF0550F4C2
:1020900082E0C82ED12CE12CF12C92E0492E512C5B
:1020A000612C712C9E012F5F3F4FB701A601C40127
:1020B0000E94160E8823C9F189819A81AB81BC8167
:1020C000892B8A2B8B2B09F1260137019FEF491AA7
:1020D000590A690A790A2D813E814F8158852F5FFF
:1020E0003F4F4F4F5F4F2D833E834F8358873FEFC6
:1020F000C31AD30AE30AF30AB3CFF4014080518034
:10210000628073803324339496CFC414D504E604DC
:10211000F70409F70FEF1FEF2FEF3FE0B701A6011C
:10212000C4010E94740D811119C080E02C960FB675
:10213000F894DEBF0FBECDBFDF91CF911F910F91FD
:10214000FF90EF90DF90CF90BF90AF909F908F90D7
:102150007F906F905F904F903F900895D5011696B5
:102160004D915D916D917C911997411551056105D6
:10217000710539F097018601C4010E94740D88230E
:10218000A1F2D5011696CD92DD92ED92FC921997AF
:10219000332051F0D701C6010196A11DB11DF401F4
:1021A00080839183A283B383F5018789908DA18D6C
:1021B000B28D892B8A2B8B2B39F48481C78AD08EE0
:1021C000E18EF28E80688483F5018481806284834D
:1021D00081E0ACCF2F923F924F925F926F927F92AD
:1021E0008F929F92AF92BF92CF92DF92EF92FF9227
:1021F0000F931F93CF93DF9300D0CDB7DEB7FC01D1
:102200008581811118C08FEF9FEF0F900F900F9075
:10221000DF91CF911F910F91FF90EF90DF90CF90C2
:10222000BF90AF909F908F907F906F905F904F90F6
:102230003F902F900895848180FFE5CF4389548992
:102240006589768982859385A485B585312C212C75
:10225000481759076A077B0719F022242394312C69
:102260006F012101CE0101963C01DF011696BB836F
:10227000AA834114510409F4C5C0F601428553856F
:10228000648575854A01F1E09F22D6015B968D91A8
:102290009C915C978A019B01E9E0369527951795FB
:1022A0000795EA95D1F71596EC91E230E9F5FC0136
:1022B000628D738D848D958D600F711F821F931FAA
:1022C000A12C22E0B22EA818B9084A145B0408F425
:1022D0005201F601248126FD04C0A114F2E0BF06DC
:1022E00071F40091540210915502209156023091E0
:1022F0005702061717072807390709F05EC040E0A4
:102300000E94010C882309F47ECFC4018E50984F9F
:10231000D3019C012A0D3B1DFC012E173F0709F438
:102320006CC041914D93F9CFDC011496BC90BA94E6
:10233000B0228114910479F4B1100DC0452B462BC5
:10234000472B69F5F6018789908DA18DB28D868323
:102350009783A087B187D6015B96ED91FC915C973E
:1023600016966D917D918D919C911997625071098E
:1023700081099109258504C0660F771F881F991F61
:102380002A95D2F70685178520893189600F711F3C
:10239000821F931F6B0D711D811D911D91CFD60161
:1023A00016964D915D916D917C9119972A813B8193
:1023B0000E94160E8111CFCF26CF730185019401A3
:1023C000AB01BC018091F2099091F3090E94A20A2D
:1023D000882309F418CF6A0C7B1CF601828593854B
:1023E000A485B5858A0D9B1DA11DB11D828793878C
:1023F000A487B5874A185B083CCF281B390B620EAF
:10240000731EEBCF2A94232809F0FDCE898190E03A
:10241000FCCEFC01818D928D009711F00C94EA1096
:102420008FEF9FEF08950F931F93CF93DF93EC01EE
:10243000898D9A8D10E000E0009799F00E94EA10D3
:102440008C010F3F100769F0898D9A8DFC01428540
:1024500053856485758541505109610971090E9450
:10246000560FC801DF91CF911F910F9108951F93CF
:10247000CF93DF93FC0125812223D1F1162FEC01AC
:10248000848187FF2AC0668577858089918941E0AC
:102490000E94010C882361F1EA8980E2E89FF00143
:1024A0001124EE50F84F309719F18D81823040F4AD
:1024B0008B899C89AD89BE89848F958FA68FB78FB4
:1024C0008F89988D938F828F8F89988DA98DBA8DE2
:1024D000B58BA48B8C818F778C83111103C08C8179
:1024E0008F7E8C83812FDF91CF911F910C94D60B1F
:1024F00080E0DF91CF911F910895FF920F931F937A
:10250000CF93DF93EC018D81813041F090E080E04A
:10251000DF91CF911F910F91FF9008958C8181FFE2
:10252000F5CF82FD1BC00091F2091091F309C8019B
:102530000E942F0A0E949F08F82EC8010E94210ABB
:102540008FEFF812E3CF8C8185FF1BC060E0CE01D6
:102550000E9437128C818F7D8C83D8CF4B895C8908
:102560006D897E898A859B85AC85BD858417950795
:10257000A607B707C1F2CE010E94560F8111D3CF33
:10258000C5CF409132065091330660913406709168
:102590003506452B462B472B21F080E00E94B20BDD
:1025A000B5CF80618C832A853B85317080E092E0D5
:1025B000821B930BADCFCF93DF93EC0161E00E94C0
:1025C0003712882311F01D8281E0DF91CF910895A9
:1025D000FC01818D928D009719F061E00C94371207
:1025E00008952F923F924F925F926F927F928F92B7
:1025F0009F92AF92BF92CF92DF92EF92FF920F9392
:102600001F93CF93DF9300D01F921F92CDB7DEB7F9
:102610007C015B01342E5D83DC0115968C9115974E
:10262000813009F0CEC014962C9021FECAC022FC45
:10263000B4C0C32CDD8022947FE027222094B22DE9
:10264000B1702B2ED7011A964D915D916D917C91B1
:102650001D97C114D10409F428C15B968D919C91FA
:102660005C97FC0174807A948A019B0169E036953D
:102670002795179507956A95D1F770228A011170F1
:10268000711020C001151105E9F416964D915D9168
:102690006D917C911997411551056105710509F0FE
:1026A00099C057968D919D910D90BC91A02D00974A
:1026B000A105B10509F0B0C0C7010E94EA0F882347
:1026C00009F47FC080E092E0801B910B46018C15DD
:1026D0009D0508F44C01D7015B964D915C915C9788
:1026E00016968D919D910D90BC91A02D0297A109F8
:1026F000B109FA01258504C0880F991FAA1FBB1FC5
:102700002A95D2F74685578560897189840F951F70
:10271000A61FB71F9C01AD01270D311D411D511D85
:1027200029013A01811432E0930609F07BC08091BF
:10273000540290915502A0915602B091570284150F
:102740009505A605B70559F48FEF9FEFDC0180933F
:10275000540290935502A0935602B0935702022D53
:102760009501B301A2018091F2099091F3090E94B1
:10277000440B882331F19EEFB91AC818D908F70124
:1027800082859385A485B585880D991DA11DB11DF0
:1027900082879387A487B58755CFF70143895489EA
:1027A0006589768982859385A485B58548175907FB
:1027B0006A077B0709F43DCFC7010E94560F8111BC
:1027C00038CF81E090E0D70113969C938E931297B7
:1027D00080E007C09E012F5F3F4F0E94160E8111BF
:1027E00002C090E079C089819A81AB81BC81F701F8
:1027F000238D348DF901278948EF5FEF60E070E0A9
:10280000203121F048EF5FEF6FEF7FE084179507ED
:10281000A607B70708F050CFF70186839783A087F4
:10282000B18750CF0115110599F5D7011A964D9131
:102830005D916D917C911D9753968D919D910D9019
:10284000BC91A02D481759076A077B0708F181E062
:102850000E94D60B882309F4B4CF409254025092C0
:102860005502609256027092570280913106816043
:1028700080933106C8018E50984FD5019C01280DD8
:10288000391DFC012E173F0759F04D914193FACFA6
:1028900041E0C301B2010E94010C8111EBCF91CF45
:1028A000281B390BA20EB31E68CFF70183899489C8
:1028B000A589B68984179507A607B70738F48481D8
:1028C000438B548B658B768B80688483F70184817E
:1028D00083FD1AC0832D9D810F900F900F900F9054
:1028E0000F90DF91CF911F910F91FF90EF90DF90AC
:1028F000CF90BF90AF909F908F907F906F905F90A0
:102900004F903F902F90089561E0C7010E943712C9
:10291000882309F456CFDECFCF93DF931F92CDB734
:10292000DEB7698341E050E0BE016F5F7F4F0E94D8
:10293000F1120F90DF91CF910895CF93DF93EC01C7
:10294000E98DFA8D309749F481E090E09B838A838A
:1029500090E080E0DF91CF91089513821282898DFB
:102960009A8D0E94F112E98DFA8D22813381232BF9
:1029700059F7F0CFFF920F931F93CF93DF93EB01A3
:10298000FC01178A168A2A81211109C02B81211185
:1029900006C02C81211103C02D81222301F1411594
:1029A0005105E9F08A01FC01F08C80E591E00E947C
:1029B0002C0AAE014E5F5F4F24E030E06CE070E027
:1029C0008F2D0E947909B8018F2D0E948A0981E01C
:1029D00090E0DF91CF911F910F91FF90089580E0DB
:1029E000F7CFFC01848595850895FC01848995893C
:1029F00008952CE433E0FC0131832083FB014089FE
:102A0000518962897389FC0142835383648375838E
:102A10000895DC01ED91FC91048CF58DE02D199465
:102A2000FC01768765870895DC01ED91FC91068CA9
:102A3000F78DE02D199591E089270895862F089547
:102A400081E08627089521E0FC018485883008F024
:102A500020E0822F0895089590E080E00895CF92BD
:102A6000DF92FF920F931F93CF93DF936C0181E06E
:102A70008093CE0788E68093F0071092CF071092DC
:102A8000F10760E08AEF99E00E9492020E947204CE
:102A900067E088E60E9459051092810780938007BD
:102AA0008AEF99E00E944B028F77282F30E094E064
:102AB000359527959A95E1F7922F990F990FC22F87
:102AC000C91BCC0FC80F8AEF99E00E944B029C01F2
:102AD00044E0359527954A95E1F72F703327922FDB
:102AE000990F990FD22FD91BDD0FD80F8AEF99E0DC
:102AF0000E944B029C0154E0359527955A95E1F7C9
:102B00002F703327922F990F990F122F191B110F26
:102B1000180F8AEF99E00E944B028AEF99E00E9419
:102B20004B029C0164E0359527956A95E1F72F707B
:102B30003327922F990F990F022F091B000F080FAF
:102B40008AEF99E00E944B029C0174E0359527952D
:102B50007A95E1F72F703327922F990F990FF22E64
:102B6000F91AFF0CF80E8AEF99E00E944B029C01C3
:102B7000E4E035952795EA95E1F72F703327922FFA
:102B8000990F990F291B220F820FF6018083F18282
:102B900002831383D483C583C601DF91CF911F9134
:102BA0000F91FF90DF90CF90089581E08093CE0742
:102BB00088E68093F0071092CF071092F1076FE03C
:102BC0008AEF99E00E9492020E94720461E088E616
:102BD0000E94590510928107809380078AEF99E03F
:102BE0000E944B020895CF92DF92EF92FF921F93C3
:102BF000CF93DF93EC0180E2689FF0011124EE5047
:102C0000F84F9385917161F0842F827449F080E0D0
:102C1000DF91CF911F91FF90EF90DF90CF900895BB
:102C2000142F6A8B8091540290915502A091560204
:102C3000B09157028E879F87A88BB98BC488D5889F
:102C4000F12CE12C7601DD24CC24CF8AD88EE98EBC
:102C5000FA8E828D938DB0E0A0E0AC01BD014C29CD
:102C60005D296E297F294F8B588F698F7A8F8385D5
:102C70008871B1F4848D958DA68DB78D8B8B9C8BCF
:102C8000AD8BBE8B81E08D831F701C831E821F82E3
:102C9000188619861A861B861C861D8681E0B8CF89
:102CA000803109F0B4CF9E012D5E3F4F8B8D9C8DFE
:102CB0000E94970E882309F4AACF84E0E4CF0F93F3
:102CC0001F93CF93DF93DC0124E437E0F9010190F7
:102CD0000020E9F79F0125543740822FFD01019024
:102CE0000020E9F731978F010A1B1B0B022E000C05
:102CF000330B20173107E8F0C4E4D7E020E090E080
:102D00002817BCF44991BD01690F711D97FD7A9593
:102D1000FB01308143130AC09F5F492F092E000C2D
:102D2000550B0417150719F481E004C090E02F5FDC
:102D3000E7CF80E0DF91CF911F910F910895FB01C4
:102D400001900020E9F73197AF01461B570BDC01DA
:102D5000ED91FC910280F381E02D19948F929F9266
:102D6000AF92BF92EF92FF920F931F93CF93DF9397
:102D7000CDB7DEB7A1970FB6F894DEBF0FBECDBFBB
:102D80007C01FA01CB0119A2223008F42AE08E015D
:102D90000F5D1F4F822E912CB12CA12CBF01A501DC
:102DA00094010E945D3BF901CA016A300CF5605D37
:102DB000D8016E938D01232B242B252B79F790E0DE
:102DC00080E0109721F0BD01C7010E949F16A196D7
:102DD0000FB6F894DEBF0FBECDBFDF91CF911F912C
:102DE0000F91FF90EF90BF90AF909F908F900895BC
:102DF000695CDECFCF92DF92EF92FF920F931F9329
:102E0000CF93DF936B01770FEE08FF08F7FE1BC02F
:102E1000EC016DE20E9466068C0144275527BA0139
:102E20004C195D096E097F092AE0CE010E94AE1699
:102E3000800F911FDF91CF911F910F91FF90EF9025
:102E4000DF90CF9008952AE0B701A601DF91CF91DE
:102E50001F910F91FF90EF90DF90CF900C94AE16E2
:102E6000462F50E070E060E02AE00C94AE168F929E
:102E70009F92AF92BF92CF92DF92EF92FF920F9309
:102E80001F93CF93DF937C018B014C0182E0880E6E
:102E9000911C5701E5E0AE0EB11CD0E0C0E0F4019A
:102EA00061914F01C8010E9430176C016EE2C801A8
:102EB0000E9466068C0D9D1DC80FD91F8A149B04A5
:102EC00071F7F7016581C8010E9430178C0F9D1FB3
:102ED000DF91CF911F910F91FF90EF90DF90CF90F6
:102EE000BF90AF909F908F9008952F923F924F92F6
:102EF0005F926F927F928F929F92AF92BF92CF928A
:102F0000DF92EF92FF921F93CF93DF93EC016A0160
:102F10007B01722EAB019601CB01B6010E940F3DE1
:102F20006EE573E0811126C046015701E894B7F8B9
:102F30002FEF3FEF4FE75FE7C501B4010E940F3D60
:102F400081110CC02FEF3FEF4FE75FE7C501B401E0
:102F50000E940F3A62E673E0181664F02FEF3FEF1D
:102F60004FE75FE4C701B6010E94C43C1816B4F4F1
:102F700066E673E0CE01DF91CF911F91FF90EF9055
:102F8000DF90CF90BF90AF909F908F907F906F9089
:102F90005F904F903F902F900C949F162FEF3FEF34
:102FA0004FE75FECC701B6010E940F3A87FDE0CF03
:102FB00020E030E0A901C701B6010E940F3A312C90
:102FC000212C87FF09C06DE2CE010E9466061C011C
:102FD000F7FAF094F7F8F09410E060E070E080E029
:102FE0009FE3711641F020E030E040E251E40E949E
:102FF000233C1F5FF6CFA70196010E94B73B2B0130
:103000003C010E94953C4B015C012AE0BC01A401FB
:10301000CE010E94AE167C01E20CF31C1123C1F11B
:10302000C501B4010E94143A9B01AC01C301B20175
:103030000E94B63B4B015C016EE2CE010E94660627
:10304000E80EF91E115020F120E030E040E251E49A
:10305000C501B4010E94753A2B013C010E94953CC8
:103060004B01B12CA12C2AE0B501A401CE010E9494
:10307000AE16E80EF91EC501B4010E94143A9B0178
:10308000AC01C301B2010E94B63B4B015C01DACF37
:10309000C701DF91CF911F91FF90EF90DF90CF900C
:1030A000BF90AF909F908F907F906F905F904F9068
:1030B0003F902F9008956AE673E00C949F160F934B
:1030C0001F93CF93DF93EC010E949F168C01CE01DA
:1030D0000E945B18800F911FDF91CF911F910F917C
:1030E00008950C949F1685ED8093BC008091CA07CB
:1030F0009091CB07A091CC07B091CD070796A11D69
:10310000B11D23E0B695A795979587952A95D1F798
:103110002091BC0024FD03C01092C807089540917F
:10312000CA075091CB076091CC077091CD07452B12
:10313000462B472B69F30097A105B10541F025E324
:103140002A95F1F700000197A109B109E1CF80911B
:10315000C9070C949D030E944E3E3F924F925F928E
:103160006F927F928F929F92AF92BF92CF92DF9297
:10317000EF92FF920F931F93CF93DF9300D000D075
:1031800000D01F921F92CDB7DEB77C01FE013196B1
:10319000CE010C966F0130E23193E817F907E1F7A1
:1031A000DA0130E087E09D91B92E992309F43CC003
:1031B0009E32F1F48A30C9F480E02B960FB6F89471
:1031C000DEBF0FBECDBFDF91CF911F910F91FF905A
:1031D000EF90DF90CF90BF90AF909F908F907F90B7
:1031E0006F905F904F903F90089538E08AE0DBCF7A
:1031F000E4E6F2E04491442321F031969413FACFAF
:10320000DBCF8317C8F24FED490F4E35A8F64FE9D3
:10321000490F4A3118F440EEB42EB90EF601E30F0F
:10322000F11DB0823F5FBFCF8981803229F2322EFB
:103230008B01DB015B968D919C915C97F701948FDC
:10324000838F16961D921D921D921C921997FB0159
:103250001286138614861586F80182859385A485C7
:10326000B585438954896589768984179507A607AA
:10327000B70708F04DC025E0B695A79597958795B7
:103280002A95D1F7F82FFF70AF2ED80115968C91A3
:10329000823008F491CFC8010E94EA1097FD8CCFCC
:1032A000F80182859385A485B5854F96A11DB11D32
:1032B00082879387A487B587F0E2AF9EB00111247F
:1032C0006E50784F6115710509F476CFDB018C9152
:1032D000882341F0853E09F062C0BB2029F0BB2461
:1032E000B394BACFB1100EC0F701A28A80915402F4
:1032F00090915502A0915602B09157028687978708
:10330000A08BB18BDB018C918111E9CFBB24B394ED
:10331000832D8271823109F04FCFBB2009F44DC05B
:10332000F701668577858089918941E00E94010CCB
:10333000882309F441CFD70152968C91B0E28B9F3C
:10334000C00111248E50984F009709F435CFFC012D
:103350003A9626E1DF011D922A95E9F72BE0F60166
:10336000DC0101900D922A95E1F721E238E2FC019F
:10337000318B208B40E058E057874687338B228B78
:10338000318F208F578B468B81E00E94D60B88238C
:1033900009F412CF432DD70152966C910AC04BE02D
:1033A00050E0C6010E94533E892B09F055CF432DB2
:1033B0006A2DC7010E94F31500CFF8018581823084
:1033C00009F4FACEC8010E94EA0F882309F4F4CE6A
:1033D000D8015B96ED91FC915C9716968D909D902F
:1033E000AD90BC901997B2E08B1A9108A108B10872
:1033F000858504C0880C991CAA1CBB1C8A95D2F731
:1034000086859785A089B189880E991EAA1EBB1E44
:10341000848124013501480E511C611C711C8414E7
:103420009504A604B70409F1E1E04E1A51086108B9
:10343000710881E00E94D60B882309F4BDCEE2EF2B
:10344000F7E0119282EF99E08E179F07D1F7409233
:103450005402509255026092560270925702809127
:103460003106816080933106DACFD8015B96ED9109
:10347000FC91258580E092E0A0E0B0E004C0880FD8
:10348000991FAA1FBB1F2A95D2F7F80143895489B7
:1034900065897689840F951FA61FB71F838B948B30
:1034A000A58BB68BD70152961C9282EF97E04FCF37
:1034B000AF92BF92CF92DF92EF92FF920F931F9342
:1034C000CF93DF9300D01F92CDB7DEB78C016B0195
:1034D0007A018091F7098333E9F45B016801C40E36
:1034E000D51EC016D106A9F10E948D088FE00E945A
:1034F0009808812F0E949808802F0E9498080F5FDB
:103500001F4F80E00E949808F50181935F010E949F
:103510008308E7CF843369F50E948D0819830A83F5
:103520008F2D8F778B83EC8264E070E0CE01019663
:103530000E946908A70170E060E0C6010E94603E39
:10354000E114F10421F0B701C6010E9469080E944C
:103550008308C7010F900F900F900F90DF91CF91CC
:103560001F910F91FF90EF90DF90CF90BF90AF90A1
:1035700008950E948D080F3F110509F030F419825B
:103580000A831B8263E070E0D1CF17FD0BC0198264
:103590000A8333E0169507953A95E1F7007E0860B7
:1035A0000B83F0CFC80126E0969587952A95E1F721
:1035B000807E19830A830115104C18F480618B8377
:1035C000E1CF8861FCCFCF93DF931F92CDB7DEB7F9
:1035D0002091F80930E0322F2227260F371F90E084
:1035E000982F882741E050E0BE016F5F7F4F820F28
:1035F000931F0E94581A89810F90DF91CF910895EF
:10360000CF93C82F462F61E070E00E94B60961E0B9
:1036100070E08C2F0E94E31A8111F9CFCF910895A9
:10362000CF93C82F80E591E00E942C0A68E070E0FB
:103630008C2FCF910C94001BCF93C82F80E591E085
:103640000E942C0A60E170E08C2FCF910C94001B3B
:10365000CF93DF93EC01888D883020F40E941C1BEF
:1036600088E0888FDF91CF91089563E070E00C943B
:10367000E31ACF93C82F80E591E00E942C0A8C2F8B
:10368000CF910C94351BEF92FF920F931F93CF9322
:10369000DF937C018091F709D4E0833309F0D8E00F
:1036A00004E317E0C0E0F801219131918F01F701A7
:1036B000848195812817390729F0CF5FDC13F3CF78
:1036C00080E006C08C2F0E94391B8431B1F781E065
:1036D000DF91CF911F910F91FF90EF900895CF93BD
:1036E000DF93EC018C858830D0F40E94391B843143
:1036F00089F0882379F0883169F021E08C3159F420
:10370000E881F9810084F185E02DCE01199521E051
:10371000892B09F420E0822FDF91CF91089580E07A
:10372000FBCFCF92DF92EF92FF92CF93DF93EC012A
:103730008C85883068F40E94101B0E945A066B0129
:103740007C018C850E94391B811109C088E08C871F
:10375000DF91CF91FF90EF90DF90CF90089561E0DF
:1037600070E080E090E00E9428060E945A06AB01BB
:10377000BC014C195D096E097F098D859E85B0E0FD
:10378000A0E0481759076A077B07D8F28C850E948A
:103790001C1BDCCFCF93FC01C08D80E591E00E9423
:1037A0002C0A60E270E08C2F0E94001B62E070E047
:1037B0008C2F0E94E31A84FD16C062E070E08C2F0B
:1037C0000E94E31A83FF0AC048E162E070E08C2F98
:1037D0000E94B60980E090E0CF91089580E591E0E5
:1037E0000E942C0AE3CF40E162E070E08C2F0E943F
:1037F000B60981E0F0CF1F93CF93DF931F92CDB72F
:10380000DEB7182F80E591E00E942C0A812F0E94DC
:103810006B0927E0129FF0011124E450F94F228137
:103820003381377041E050E0BE016F5F7F4F820F00
:10383000931F0E94581A89810F90DF91CF911F9199
:103840000895FC01808D883040F4218D328D232B2A
:1038500021F00E94FB1B90E008958FEF9FEF0895E9
:10386000CF93DF93FC012485283028F08FEF9FEF62
:10387000DF91CF910895EC010190F081E02D00845B
:10388000F185E02D1995892B89F38C850E94FB1B0E
:1038900090E0EECFDA01E091F809F0E0FE2FEE279C
:1038A000E60FF71F90E0982F8827A901BD018E0F22
:1038B0009F1F0C94581A8F929F92AF92BF92CF92F3
:1038C000DF92EF92FF920F931F93CF93DF93CDB7C9
:1038D000DEB760970FB6F894DEBF0FBECDBF7C0198
:1038E0009091F709911115C018E0812F60960FB6DD
:1038F000F894DEBF0FBECDBFDF91CF911F910F9126
:10390000FF90EF90DF90CF90BF90AF909F908F90FF
:10391000089508E0933309F404E06B0180E591E039
:103920000E942C0A9E012F5F3F4F5901490110E070
:10393000812F0E94351BF40181934F018823C1F030
:103940001F5F0113F5CF00E0F50181915F018D311B
:1039500049F0883139F08A51823020F00F5F10131E
:10396000F3CFC2CF60E170E0802F0E94001B102FC8
:10397000A12EB12CF501EE0FFF1FEC5CF84F118268
:10398000108283EE93E00197F1F742E870E060E087
:10399000812F0E94B6094FEF62E070E0812F0E94F4
:1039A000B609B601C114D10491F480915C029091E2
:1039B0005D0201968115F0EC9F0708F45CC09093BE
:1039C0005D0280935C0260915C0270915D02812FC8
:1039D0000E94A00986E0EAE6F2E0DE011996019075
:1039E0000D928A95E1F7F70183818F778C87848127
:1039F0008D8785818E87A7014E5F5F4F24E030E081
:103A00006CE070E0812F0E947909B601812F0E943D
:103A10008A0926E030E0AE01475F5F4F66E070E064
:103A2000812F0E94790961E070E0812F0E94001BC4
:103A300027E02A9DC0012B9D900D11249C0124504C
:103A4000394F7901F9011182108222E030E0AE0194
:103A5000415F5F4F68E270E0812F0E944A1C8F85B2
:103A60009889982789279827F7019383828316825C
:103A7000158214823ACF80E090ECA1CFCF92DF92F2
:103A8000EF92FF920F931F93CF93DF9300D000D05C
:103A9000CDB7DEB78C016B017A01FC01808D8830D7
:103AA00010F40E941C1B8CE493E09A838983F60136
:103AB00082819381A481B5818B839C83AD83BE83F6
:103AC000B701CE0101960E945B1CF801808F8830FF
:103AD000A0F4F586E486128E118E81E026960FB64C
:103AE000F894DEBF0FBECDBFDF91CF911F910F9134
:103AF000FF90EF90DF90CF90089580E0EFCF7F921E
:103B00008F929F92AF92BF92CF92DF92EF92FF92ED
:103B10000F931F93CF93DF931F921F92CDB7DEB702
:103B2000782E8B014A01590122E030E0AE014F5F4F
:103B30005F4F64E270E00E944A1CE980FA80FE2434
:103B4000EF24FE24E00EF11E970137704091F70933
:103B5000072D10E0433309F042C0085F1F4F102FBC
:103B60000027110F110F110FC901800F911F47334B
:103B7000C9F1A9014A0D5B1D4130584098F160E040
:103B800078E06B01C21AD30AA601B4010E94BD08F5
:103B9000A5014C195D09B4016C0D7D1DC8010E9481
:103BA000BD08EA0CFB1CF982EA8222E030E0AE019B
:103BB0004F5F5F4F64E270E0872D0E9479090F909C
:103BC0000F90DF91CF911F910F91FF90EF90DF90B9
:103BD000CF90BF90AF909F908F907F900895005F9F
:103BE0001F4FBDCFA501B401DACFEF92FF921F9313
:103BF000CF93DF931F921F92CDB7DEB7182F22E02D
:103C000030E0AE014F5F5F4F60E270E00E944A1CFF
:103C1000E980FA80FE24EF24FE2422E030E0AE01A9
:103C20004F5F5F4F60E270E0812F0E944A1C8981E4
:103C30009A81982789279827E816F90689F487E05A
:103C4000189FF0011124E450F94FF582E482C70176
:103C50000F900F90DF91CF911F91FF90EF900895FB
:103C60007C01DBCF1F93CF93DF93182F80E591E08A
:103C70000E942C0A812F0E94F51DEC01812F0E94C9
:103C8000351B873121F08C3111F0D0E0C0E0CE013E
:103C9000DF91CF911F910895CF93DF93EC018C8535
:103CA000883060F40E94391B873111F08C3131F477
:103CB0008C850E94321E8115984088F3DF91CF9148
:103CC0000895FC018485883010F40C94321E90E035
:103CD00080E00895CF92DF92EF92FF921F93CF93EF
:103CE000DF93182F7B01EA014130584010F0C0E00B
:103CF000D8E080E591E00E942C0A812F0E94F51DFA
:103D00006C01812F0E94351B873111F08C3121F518
:103D1000CC16DD0670F380E591E00E942C0A9E012E
:103D2000A70170E060E0812F0E947F1D60E270E0DB
:103D3000812F0E94001B62E070E0812F0E94E31A35
:103D400084FD0DC0812F0E94351B8823B9F080E5CA
:103D500091E00E942C0AEFCFD0E0C0E0DCCF40E140
:103D600062E070E0812F0E94B609CE01DF91CF9111
:103D70001F91FF90EF90DF90CF900895D0E0C0E0CA
:103D8000F4CF0F931F93CF93DF938C01EA01FC01D3
:103D90008485883048F40E946A1E892B39F481E0BA
:103DA00090E0F80193838283D0E0C0E0CE01DF9100
:103DB000CF911F910F9108959F92AF92BF92CF9292
:103DC000DF92EF92FF920F931F93CF93DF938C01BB
:103DD0005B01942EE52EFC01C688D788F08C80E527
:103DE00091E00E942C0A8F2D0E94F51DC92DDE2D19
:103DF0008C179D0708F4EC019E01A501B6018F2DDB
:103E00000E947F1DF801868997898C0F9D1F978BD3
:103E1000868BCE01DF91CF911F910F91FF90EF9094
:103E2000DF90CF90BF90AF909F900895FF920F9337
:103E30001F93CF93DF931F921F92CDB7DEB7F82E5B
:103E400022E030E0AE014F5F5F4F66E270E00E941B
:103E50004A1C09811A8110270127102722E030E02F
:103E6000AE014F5F5F4F66E270E08F2D0E944A1CEB
:103E700089819A819827892798270817190749F473
:103E8000C8010F900F90DF91CF911F910F91FF907C
:103E900008958C01E3CF1F93CF93DF93182F87E012
:103EA000189FE0011124C450D94F8881998100974F
:103EB00061F480E591E00E942C0A812F0E94161F78
:103EC0002E81821B910999838883DF91CF911F9165
:103ED00008959F92AF92BF92CF92DF92EF92FF929E
:103EE0000F931F93CF93DF93EC017B018091F70930
:103EF000811121C01B821A8288EE93E0A0E0B0E01D
:103F00008C839D83AE83BF838CED92E099838883FD
:103F100088E08C8788EE93E09E878D87CE01DF91C5
:103F2000CF911F910F91FF90EF90DF90CF90BF90B6
:103F3000AF909F90089534E0932E833311F028E0E2
:103F4000922E84E3C82E87E0D82E10E098E0B92E98
:103F5000A12CD6012D913D916D01F70184819581B0
:103F60002817390791F4812F0E94391B082F8731B8
:103F700011F08C3139F5812F0E944B1F892B59F597
:103F80000C3119F4812F0E94101B1F5F9112E1CF99
:103F9000A11008C0D701ED91FC910084F185E02DBE
:103FA000C70119951B821A8288EE93E0A0E0B0E069
:103FB0008C839D83AE83BF838CED92E0998388834D
:103FC000BC86A8CF843149F08111DFCFF60132974A
:103FD00011821082DACFB12ED8CFAA24A394D5CFE4
:103FE0008F929F92AF92BF92CF92DF92EF92FF9209
:103FF0000F931F93CF93DF93CDB7DEB72F970FB6F5
:10400000F894DEBF0FBECDBF5C014B017A018091F9
:10401000F7098823C9F104E0833309F008E0B5010A
:10402000CE0101960E94691F84E3C82E87E0D82E36
:1040300010E0F601219131916F01F50184819581A4
:104040002817390751F4812F0E94391B873129F431
:10405000A701B401812F0E946A1E1F5F0113E9CFDF
:10406000C7012F960FB6F894DEBF0FBECDBFDF910C
:10407000CF911F910F91FF90EF90DF90CF90BF9065
:10408000AF909F908F900895F12CE12CE9CFFC0127
:104090008485883010F40C944B1F90E080E00895E4
:1040A0004F925F927F928F929F92AF92BF92CF92E8
:1040B000DF92EF92FF920F931F93CF93DF931F92A4
:1040C0001F92CDB7DEB7782E6B014A01A82EB12C16
:1040D00027E0829FC0011124FC01E450F94F7F01C9
:1040E0000081118180E591E00E942C0A08151905D4
:1040F00054F4872D0E94161FF70126818C01021BA4
:104100001109118300830115110519F5872D0E94EE
:10411000351B843159F0882349F001E010E08C31DF
:1041200011F410E000E0119501951109C8010F90FC
:104130000F90DF91CF911F910F91FF90EF90DF9043
:10414000CF90BF90AF909F908F907F905F904F9057
:104150000895801691060CF4840187E08A9DF00191
:104160008B9DF00D1124E450F94FE280F380C114CF
:10417000D10451F12701F7E05F22872D0E946B09DE
:10418000840D951D2091F709273309F453C0980138
:10419000240D351D2130384008F44CC020E038E0B3
:1041A000490184189508A401B6010E94581A2601F5
:1041B000480C591C6801C818D908872D0E946B0942
:1041C000A601B2010E94581AE00EF11E87E08A9DF6
:1041D000F0018B9DF00D1124E450F94FF382E2823F
:1041E00020813181201B310B318320838681800F18
:1041F000912F911D8A3F910510F4232BF1F487E054
:104200008A9DF0018B9DF00D1124E450F94F168228
:10421000F982EA8222E030E0AE014F5F5F4F68E250
:1042200070E0872D0E94790960E470E0872D0E947C
:10423000001B7CCFA801B601C5CF868377CFCF9373
:10424000DF93FC01218D328D2115310529F48FEF8B
:104250009FEFDF91CF910895EC01808D42175307B6
:1042600008F0A9010E9450201816190684F7298D1C
:104270003A8D281B390B3A8F298FEBCF0F931F9361
:10428000CF93DF931F92CDB7DEB7FC01218D328D26
:10429000232B41F48FEF9FEF0F90DF91CF911F9170
:1042A0000F9108958C0141E050E0BE016F5F7F4F98
:1042B000FC01808D0E945020181619065CF7F80149
:1042C000818D928D0197928F818F898190E0E4CFCB
:1042D000CF93DF931F92CDB7DEB741E050E0BE0130
:1042E0006F5F7F4FFC0184850E94502018161906CD
:1042F00034F4898190E00F90DF91CF9108958FEF92
:104300009FEFF9CFFC018485883010F40C94502085
:1043100090E080E008958F929F92AF92BF92CF92EB
:10432000DF92EF92FF920F931F93CF93DF9300D012
:1043300000D000D01F92CDB7DEB79091F709911150
:1043400015C018E0812F2A960FB6F894DEBF0FBE75
:10435000CDBFDF91CF911F910F91FF90EF90DF9034
:10436000CF90BF90AF909F908F90089528E0F22E4D
:10437000933311F494E0F92E6B01082F80E591E05E
:104380000E942C0A9E012F5F3F4F5901490110E006
:10439000812F0E94351BF40181934F018823C1F0C6
:1043A0001F5FF112F5CFF12CF50191915F019D3165
:1043B00049F0983139F09A51923020F0F3941F115E
:1043C000F3CFBFCF60E170E08F2D0E94001B1F2D47
:1043D000E12EF12CF701EE0FFF1FEC5CF84F11827C
:1043E000108283EE93E00197F1F7402F70E060E0D8
:1043F000812F0E94B6094FEF62E070E0812F0E948A
:10440000B609B601CD2889F480915C0290915D02D5
:1044100001968115F0EC9F0798F190935D028093CF
:104420005C0260915C0270915D02812F0E94A00984
:1044300061E070E0812F0E94001B27E02E9DC001EB
:104440002F9D900D11249C012450394F7901F901C1
:104450001182108222E030E0AE01475F5F4F68E2D8
:1044600070E0812F0E944A1C89859A8598278927A8
:104470009827F7019383828316821582148262CF74
:1044800080E090ECCACF0F931F93CF93DF93EC01A2
:104490008B01888D883010F40E941C1BB80182E0CB
:1044A0000E948B21888F883050F41D870C871A8ECC
:1044B000198E81E0DF91CF911F910F91089580E0D7
:1044C000F9CF0F931F93CF938C01FC016481758109
:1044D00081E20E948B21C82F8830F8F480E591E0BA
:1044E0000E942C0A8C2F0E94351B833131F08C2FB7
:1044F000CF911F910F910C94101B62E070E08C2FF4
:104500000E94001BF80184819581EC2FF0E0EE0FF2
:10451000FF1FEC5CF84F91838083CF911F910F9127
:104520000895CF92DF92EF92FF921F93CF93DF9384
:10453000EC017B016A018C85883048F40E94391BAC
:10454000882319F08C850E94101B88E08C87F70166
:1045500082819381A481B5810097A105B10551F4B1
:1045600090E080E0DF91CF911F91FF90EF90DF907E
:10457000CF9008958F3F9F4FAF4FBF4F89F370E0AB
:1045800060E081E20E948B21182F8C87883040F7F1
:1045900080E591E00E942C0AA7014E5F5F4F24E066
:1045A00030E06CE070E0812F0E947909B601812F24
:1045B0000E948A0964E070E0812F0E94001B0E9423
:1045C0005A066B017C018C850E94391B873111F1E1
:1045D0008C3101F1882321F20E945A06AB01BC0103
:1045E0004C195D096E097F098D859E85B0E0A0E0BC
:1045F00084179507A607B70738F061E070E080E000
:1046000090E00E942806DFCF8C850E941C1B88E06A
:104610008C87A6CF81E090E0A5CF0F931F93CF9317
:10462000DF931F921F92CDB7DEB7FC01248528309F
:10463000E0F48C0180E591E00E942C0A22E030E059
:10464000AE014F5F5F4F60E170E0F80184850E942A
:104650004A1C89819A819827892798270F900F9063
:10466000DF91CF911F910F91089590E080E0F6CFF8
:104670000F931F93CF93DF931F921F92CDB7DEB797
:10468000FC0124852830E0F48C0180E591E00E9453
:104690002C0A22E030E0AE014F5F5F4F64E070E033
:1046A000F80184850E944A1C89819A81982789276C
:1046B00098270F900F90DF91CF911F910F91089540
:1046C00090E080E0F6CFCF93DF93EC01898D9A8D57
:1046D000009741F00E94DB12898D9A8D0E94C53DA2
:1046E0001A8E198EDF91CF9108950F931F93CF9358
:1046F000DF9300D000D01F921F92CDB7DEB78C01A0
:10470000D80159964D915C915A974115510551F038
:10471000ED91FC91048CF58DE02D70E060E0C80116
:104720001995EECFF801808D0E944B1F892BB1F1B6
:1047300048E050E0BE016F5F7F4FD80158968C91E2
:104740000E94502018161906F4F4D801509684E0FF
:10475000FE01319601900D928A95E1F78D8190E0EE
:10476000982F88272E81820F911DF801958B848BBD
:104770008F81282F30E0322F22278885820F932FB8
:10478000911D928F818F28960FB6F894DEBF0FBED1
:10479000CDBFDF91CF911F910F91089590E080E000
:1047A000F2CF4F925F926F927F928F929F92AF92D1
:1047B000BF92CF92DF92EF92FF920F931F93CF930E
:1047C000DF93CDB7DEB763970FB6F894DEBF0FBEA9
:1047D000CDBF7C016B013A01FB0120E090E080E05D
:1047E0006AE03191332309F461C040ED430F4A3050
:1047F00008F04DC0689FA001699F500D1124CA01A7
:10480000C097830F911D37FD9A958F3F910549F30E
:1048100040F3F70142815381648175818091F00AF0
:104820009091F10AA091F20AB091F30A4817590742
:104830006A077B0709F40DC28701085F1F4F0E94BA
:104840005A066F7077277C5FC8010E94432281302F
:1048500009F004C28CE493E09A838983F701828192
:104860009381A481B5818B839C83AD83BE8345E313
:1048700050E0BE016F5F7F4FC8010E94BA14892BC0
:10488000A9F5D12CC12CC8010E94281B17C03E32AB
:1048900009F0BFCF233009F4BCCFD301A20FB11D63
:1048A00012968C932F5F90E080E09BCF233009F02D
:1048B000B0CFF3018583CC24C394D12CC601639679
:1048C0000FB6F894DEBF0FBECDBFDF91CF911F9121
:1048D0000F91FF90EF90DF90CF90BF90AF909F909F
:1048E0008F907F906F905F904F9008950E945A062E
:1048F000F7017783668342E050E0B7016A5F7F4F3C
:10490000C8010E94DC1E81E090E09A83898342E026
:1049100050E0BE016F5F7F4FC8010E94DC1E80E047
:1049200091E09A83898342E050E0BE016F5F7F4F40
:10493000C8010E94DC1E1A82198242E050E0BE01CA
:104940006F5F7F4FC8010E94DC1E42E050E0BE0155
:104950006F5F7F4FC8010E94DC1E42E050E0BE0145
:104960006F5F7F4FC8010E94DC1E5601F6018081F7
:10497000882301F16501F60181912F01882311F04F
:104980008E32B1F446018A189B081814190474F485
:104990008D8641E050E0BE01635F7F4FC8010E94F9
:1049A000DC1EA401B501C8010E94DC1E5201DECF4D
:1049B0006201E1CF1D8641E050E0BE01635F7F4FA1
:1049C000C8010E94DC1EC12CDD24D394DA82C98286
:1049D00042E050E0BE016F5F7F4FC8010E94DC1EC5
:1049E000DA82C98242E050E0BE016F5F7F4FC801AA
:1049F0000E94DC1EC8010E94CA1B892B09F441CF0A
:104A0000F3E0AF2EB12C230122E0420E511CD4C0A2
:104A1000F7014281538164817581808D918DA28DD2
:104A2000B38D481759076A077B0709F008C1848DC1
:104A3000958DC59709F003C181A192A15DEFC52EA7
:104A4000DD24DA940C970CF4ADC04CE050E0BE01CC
:104A50006F5F7F4FC8010E941F218B819C81982727
:104A6000892798279A8B898BF7014681578129815D
:104A70003A814217530709F0E7C097FFE5C08F70EE
:104A800092703BEFC32EDD24DA94892B09F08AC0A3
:104A90006F8078847624672476242AEFC22EDD2462
:104AA000DA946114710409F47DC0D12CC12C8D817C
:104AB0009E81982789279827C816D906F8F441E0DF
:104AC00050E0BE01635F7F4FC8010E941F214D85EA
:104AD000442331F050E070E060E0C8010E941F21E3
:104AE0008D858111ECCF44E050E070E060E0C801BA
:104AF0000E941F21FFEFCF1ADF0AD9CF912C812C02
:104B000041E050E0BE016D5E7F4FC8010E941F2151
:104B10004B89842F807C09F06CC0442331F050E035
:104B200070E060E0C8010E941F218B898111E8CFED
:104B300042E050E0BE01615F7F4FC8010E941F212B
:104B400042E050E0BE01635F7F4FC8010E941F2119
:104B500044E050E070E060E0C8010E941F2142E0A4
:104B600050E0BE016F5E7F4FC8010E941F218F85FC
:104B7000988949895A898115914009F043C0CD84AB
:104B8000DE84DC24CD24DC2481E0C816D104D1F5F8
:104B90004115544009F04AC044E050E0B201C80158
:104BA0000E941F2121E0A21AB10809F46CCEFFEF88
:104BB000CF16DF0609F067CE0E945A063B014C0172
:104BC000C8010E947523181619060CF421CF0E9403
:104BD0005A06661977098809990969387341810568
:104BE000910548F562E370E080E090E00E942806BD
:104BF000E7CF41E050E070E060E0C8010E941F2173
:104C00001B8A93CF54274527542770E060E0C801E2
:104C10000E941F21FFEF8F1A9F0A6814790409F080
:104C20006FCF96EFC92EDD24DA94BCCFE7EFCE2EFE
:104C3000DD24DA94B7CFCC24CA94DC2CB3CF6EEF4A
:104C4000C62EDD24DA94AECF4CEFC42EDD24DA94E8
:104C5000A9CF8EEFC82EDD24DA9430CED12CC12C12
:104C60002DCECF92DF92EF92FF920F931F93CF93AF
:104C7000DF93CDB7DEB7AF970FB6F894DEBF0FBEA8
:104C8000CDBF7C016A010CE413E01A8309831C8602
:104C90001B8688EE93E0A0E0B0E08D879E87AF870B
:104CA000B88B82EB92E09A878987188F0F8B198EC9
:104CB0001A8E1B8E1C8E88E089A31BA70AA71CA630
:104CC0001DA61EA61FA680911A0B90911B0BA091EA
:104CD0001C0BB0911D0B8EA39FA3A8A7B9A78B8314
:104CE0009C83AD83BE8318861F82AE01465D5F4FF5
:104CF000CE0101960E94D12381309105B1F4D701F4
:104D0000ED91FC910488F589E02D1DA30CA38CA5E1
:104D10009DA5AEA5BFA58EA39FA3A8A7B9A7A601D1
:104D2000BE016C5D7F4FC7011995AF960FB6F89421
:104D3000DEBF0FBECDBFDF91CF911F910F91FF90CE
:104D4000EF90DF90CF900895CF92DF92EF92FF9295
:104D50000F931F93CF93DF93CDB7DEB7AF970FB607
:104D6000F894DEBF0FBECDBF8C016B017A018CE4DD
:104D700093E09A8389831B821C821D821E821C867B
:104D80001B8648EE53E060E070E04D875E876F87DA
:104D9000788B22EB32E03A872987988F8F8B198E98
:104DA0001A8E1B8E1C8E28E029A39BA78AA71CA6FF
:104DB0001DA61EA61FA6D8011C968C91883060F4F3
:104DC0000E94391B882321F0F80184850E94101B62
:104DD00088E0D8011C968C9380911A0B90911B0B44
:104DE000A0911C0BB0911D0B8EA39FA3A8A7B9A7E0
:104DF0008B839C83AD83BE8318861F82AE01465D84
:104E00005F4FB601CE0101960E94D1230097C1F0F9
:104E1000D801ED91FC910684F785E02D8CE493E0B8
:104E20009DA38CA38CA59DA5AEA5BFA58EA39FA376
:104E3000A8A7B9A7A701BE016C5D7F4FC80119954E
:104E4000AF960FB6F894DEBF0FBECDBFDF91CF9106
:104E50001F910F91FF90EF90DF90CF900895EF9208
:104E6000FF920F931F93CF93DF9300D01F92CDB784
:104E7000DEB78C017B01FB0184858830A8F08CE4CF
:104E800093E0F80191838083128213821482158249
:104E9000C8010F900F900F900F90DF91CF911F914D
:104EA0000F91FF90EF90089580E591E00E942C0A09
:104EB00024E030E0AE014F5F5F4F6CE070E0F7013F
:104EC00084850E944A1C8CE493E0F80191838083DE
:104ED00089819A81AB81BC8182839383A483B583CA
:104EE000D7CFEF92FF920F931F93CF93DF93EC01F5
:104EF0007B018A011B821A8288EE93E0A0E0B0E079
:104F00008C839D83AE83BF838AE393E099838883F8
:104F10008DE190E00E94293D9A8F898F009779F06A
:104F20002DE1F701DC0101900D922A95E1F74CE0AB
:104F300050E0B801CE010C960E94723E188EDF91AF
:104F4000CF911F910F91FF90EF9008952F923F9274
:104F50004F925F926F927F928F929F92AF92BF9289
:104F6000CF92DF92EF92FF920F931F93CF93DF9335
:104F7000CDB7DEB7C756D1090FB6F894DEBF0FBE66
:104F8000CDBF6C015B01A6964FAFA69719A218A2E0
:104F90008EE293E09F8F8E8F1BA21C821B829A83CE
:104FA00089831E824E018EE1880E911CC4010E94ED
:104FB000020F75018E010F5F1F4F240118016FE270
:104FC00070E0C7010E94673E009709F45DC0F701D9
:104FD00020812F3271F4FFEFEF1AFF0A902F812FFB
:104FE0008201492E582E942D852D2801092F182F26
:104FF000E6CF8E198D3008F08CE0682E712CA3015D
:10500000B701CE01885A9F4F0E94723EE8E5F0E05A
:10501000EC0FFD1FE60DF71D1082C8010E94DB1288
:10502000F8018581882301F11EAE1DAE8EE293E06A
:105030009CAF8BAF21961FAE2197A896EEADFFAD2A
:10504000A897AE0EBF1EF501808181112AC0BE0156
:10505000655C7F4FC1010E94D3074DE653E0B1016B
:10506000C6010E9471273BC021E0AE01485A5F4F44
:10507000B201C8010E94AD188823B1F2E60CF71CFA
:10508000C2010E94DB12AFCFC7018A199B09A89603
:105090009FAF8EAFA897B201CE01CB960E94D307E7
:1050A000CCCF19A218A28EE293E09F8F8E8F1BA205
:1050B00021968FAD219781112DC0F60113821282A6
:1050C00088EE93E0A0E0B0E084839583A683B78365
:1050D0008AE393E091838083128E118E1486C60139
:1050E000C959DF4F0FB6F894DEBF0FBECDBFDF91B9
:1050F000CF911F910F91FF90EF90DF90CF90BF90D5
:10510000AF909F908F907F906F905F904F903F9067
:105110002F900895A6962FADA697A501BE01655CB8
:105120007F4FC4010E94AD18882339F2CE01CB967F
:105130000E94DB12A6968FADA6978670863039F452
:1051400049A95AA96BA97CA9C4010E94560FB401B0
:10515000C1010E94D307A50182CFDF92EF92FF9297
:105160000F931F93CF93DF93CDB7DEB7EF970FB6B3
:10517000F894DEBF0FBECDBF8E01015E1F4F47E129
:105180006FE673E0C8010E94A6278EE1E0E7F2E037
:10519000DE01119601900D928A95E1F7E8ADF9AD27
:1051A000309709F479C08581882309F475C0CE0150
:1051B000CA960E942F154AAD50E04053584F70E0F8
:1051C00060E02AE0C8010E94AE166FE2C8010E94AA
:1051D00066066BADC8010E9430176FE2C8010E94DD
:1051E00066066CADC8010E9430176CE773E0C80119
:1051F0000E947118CE01CA960E94A1079CE0899F67
:10520000B001112460507E4FC8010E9471186FE7F1
:1052100073E0C8010E9471186DADC8010E9430177B
:105220006AE3C8010E9466066EADC8010E9430178D
:105230006CE2C8010E94660662E873E0C8010E9441
:105240007118FE0131967F0169E873E0C8010E9480
:105250007118F701D0807181F2E0EF0EF11C6D2D15
:10526000C8010E94FA166FE873E0C8010E94711825
:105270008D2D0E942803BC01C8010E94FA166CE221
:10528000C8010E946606E016F106F1F6C7010E9409
:105290005B18C7010E946323EF960FB6F894DEBF38
:1052A0000FBECDBFDF91CF911F910F91FF90EF9077
:1052B000DF900895CF92DF92FF920F931F93CF93C9
:1052C000DF93CDB7DEB7C154D1090FB6F894DEBF76
:1052D0000FBECDBF47E16FE673E0CE0181960E941D
:1052E000A62780E2EEE8F2E0DE01119601900D9231
:1052F0008A95E1F7EAADFBAD309709F492C085815C
:10530000882309F48EC0CE01CC960E942F154CAD97
:1053100050E04053584F70E060E02AE0CE018196A3
:105320000E94AE166FE2CE0181960E9466066DADB8
:10533000CE0181960E9430176FE2CE0181960E94C5
:1053400066066EADCE0181960E9430176CE773E061
:10535000CE0181960E947118CE01CC960E94A107C1
:105360009CE0899FB001112460507E4FCE01819650
:105370000E9471186FE773E0CE0181960E94711848
:105380006FADCE0181960E9430176AE3CE018196FF
:105390000E94660621966FAD2197CE0181960E94EC
:1053A00030176CE2CE0181960E94660662E873E0D7
:1053B000CE0181960E9471188E010F5F1F4F6E0102
:1053C000EFE1CE0ED11C69E873E0CE0181960E9418
:1053D0007118F801F08071810E5F1F4F6F2DCE01A3
:1053E00081960E94FA166FE873E0CE0181960E94C2
:1053F00071188F2D0E942803BC01CE0181960E9456
:10540000FA166CE2CE0181960E9466060C151D0507
:10541000D1F6CE0181960E945B18CE0181960E9442
:105420006323CF5BDF4F0FB6F894DEBF0FBECDBF57
:10543000DF91CF911F910F91FF90DF90CF90089552
:105440001F920F920FB60F9211240BB60F922F934B
:105450003F934F935F936F937F938F939F93AF93FC
:10546000BF93EF93FF938091B900887F803609F452
:105470004DC008F040C0883209F4A9C028F5803139
:1054800009F49DC0C8F4882309F4FBC0883009F4EE
:1054900096C0FF91EF91BF91AF919F918F917F91B6
:1054A0006F915F914F913F912F910F900BBE0F9095
:1054B0000FBE0F901F901895883109F488C0803274
:1054C00041F78093C60714C0803409F49DC040F4AE
:1054D0008033B9F38833E9F68093C60785ECB0C012
:1054E000803509F485C0883509F496C0883489F67A
:1054F0000E947318CECF883909F48CC038F58837EC
:1055000029F050F4883611F0803719F683E0809343
:10551000C8071092FB0657C0883809F47BC0803951
:1055200019F0803809F0B5CF8091FB06803208F081
:1055300071C0E091FB0681E08E0F8093FB068091A5
:10554000BB00F0E0E552F94F80833DC0803B39F06D
:10555000E0F4803A09F479C0883A09F09ACF84E0FF
:105560008093C8071092D8061092D706E091D5060E
:10557000F091D60619958091D70681110FC081E070
:105580008093D7061092B50609C0803C09F4A6CFD7
:10559000883C09F4A3CF883B09F07BCFE091D80683
:1055A00081E08E0F8093D806F0E0EB54F94F8081B4
:1055B0008093BB009091D8068091D70629C0809136
:1055C000A3078093BB0085EC8093BC0062CF9091D1
:1055D000C5078091C407981758F5E091C50781E089
:1055E0008E0F8093C507F0E0EC55F84F8081E9CF2E
:1055F000E091C50781E08E0F8093C5078091BB00C5
:10560000F0E0EC55F84F80839091C5078091C40776
:105610009817C8F285E8D8CFE091C50781E08E0FD2
:105620008093C5078091BB00F0E0EC55F84F808374
:105630008091C70781115CCF81E08093A20784EA43
:105640008093BC001092C80724CF85EC8093BC00E7
:105650001092C8078091FB06803230F4E091FB067F
:10566000F0E0E552F94F10826091FB0670E0E091A6
:10567000D906F091DA068BED96E019951092FB06AB
:1056800008CF1092C60734CF1F920F920FB60F9219
:1056900011242F933F938F939F93AF93BF93809148
:1056A000AB069091AC06A091AD06B091AE063091DC
:1056B000AA0623E0230F2D3758F50196A11DB11D31
:1056C0002093AA068093AB069093AC06A093AD06F8
:1056D000B093AE068091AF069091B006A091B1064E
:1056E000B091B2060196A11DB11D8093AF069093B3
:1056F000B006A093B106B093B206BF91AF919F914F
:105700008F913F912F910F900FBE0F901F90189582
:1057100026E8230F0296A11DB11DD2CF1F920F9232
:105720000FB60F9211240BB60F922F933F934F9306
:105730005F936F937F938F939F93AF93BF93EF93F9
:10574000FF9386E09AE00E94E106FF91EF91BF91FE
:10575000AF919F918F917F916F915F914F913F9109
:105760002F910F900BBE0F900FBE0F901F901895AA
:105770001F920F920FB60F9211240BB60F922F9318
:105780008F939F93EF93FF93E091160AF091170A7E
:105790008081E0911C0AF0911D0A82FD1DC090815C
:1057A00080911F0A8F5F8F732091200A821741F02A
:1057B000E0911F0AF0E0EA5FF54F958F80931F0A92
:1057C000FF91EF919F918F912F910F900BBE0F90B2
:1057D0000FBE0F901F9018958081F2CFFC01908131
:1057E00090539A3008F090E0818180532AE0929F94
:1057F000800D11240895CF93DF931F92CDB7DEB7AC
:10580000898341E050E0BE016F5F7F4F90E080E010
:105810000E94BD080F90DF91CF910895CF93DF9341
:105820001F92CDB7DEB741E050E0BE016F5F7F4F02
:1058300090E080E00E94581A89810F90DF91CF910B
:105840000895CF93DF93C4E1D0E00E940E2C88230B
:1058500061F061E070E080E090E00E94280621970E
:10586000A1F780E0DF91CF91089581E0FBCFCF9247
:10587000DF92EF92FF921F93CF93DF93CDB7DEB706
:10588000C454D1090FB6F894DEBF0FBECDBFFC01E2
:10589000428153816481758123964CAF5DAF6EAFB9
:1058A0007FAF239781E023968FAF23972396CCACCD
:1058B000DDACEEACFFAC2397CBAADCAAEDAAFEAA26
:1058C0004DA75EA76FA778AB88ABCDA4DEA4EFA4ED
:1058D000F8A8CFA2D8A6E9A6FAA68EABCBA8DCA8DA
:1058E000EDA8FEA8C9A2DAA2EBA2FCA22CE433E048
:1058F0003C8B2B8B9FEF9D8B9E8B9F8B188E3E87B7
:105900002D878AA7CFA0D8A4E9A4FAA4CF86D88AE5
:10591000E98AFA8A8CA389A19AA1ABA1BCA1898743
:105920009A87AB87BC873A8329834B835C836D83DB
:105930007E838091F90981116CC060E372E080E0A0
:1059400090E00E9428060E94FA03E8E7F3E0E49161
:10595000F0E0EE0FFF1FEC5AFC4F8591949190936D
:10596000F6098093F509E8E1F3E0E491E093F409A6
:1059700061E08AE00E94BE030E94830880E591E016
:105980000E942C0A84E38093F70980E80E94FB2B95
:105990000E94212C882309F472C088E00E94FB2B0E
:1059A0000E940E2C883009F06AC080E10E94FB2B17
:1059B0000E940E2C803109F062C080E00E94FB2B17
:1059C0000E940E2C182F81115AC041E050E0BE01F8
:1059D0006D5B7F4F8FE190E00E94581A24968FAD47
:1059E0002497833009F04BC080E48093F80942E0AB
:1059F0006EE170E0812F0E94B60942E06FE170E035
:105A0000812F0E94B6091F5F183089F781E08093CB
:105A1000F90980E591E00E942C0A46E050E06EE52D
:105A200072E089E090E00E94BD0844E050E0BE01D1
:105A30006D5F7F4F8FE090E00E94BD0844E050E032
:105A4000BE01615F7F4F81E090E00E94BD0844E0AD
:105A500050E0BE016B5E7F4F85E090E00E94BD0884
:105A600081E08C8789859A85AB85BC8580931A0BEC
:105A700090931B0BA0931C0BB0931D0B6FC087E37F
:105A80008093F70980E80E94FB2B0E94212C882339
:105A900039F188E00E94FB2B0E940E2C883001F522
:105AA00080E10E94FB2B0E940E2C182F8031C1F444
:105AB00080E00E94FB2B0E940E2C811111C041E05E
:105AC00050E0BE016D5B7F4F89E390E00E94581A61
:105AD00024968FAD2497843019F41093F80996CF4B
